:020000040800F2
:1000000000C00020A5030008110E0008150E00080E
:10001000190E00081D0E0008210E00087B170008AD
:100020007B1700087B1700087B1700087B17000868
:100030007B1700087B1700087B1700088D17000846
:100040007B1700087B1700087B1700087B17000848
:100050007B1700087B170008D90E0008DF0E000888
:10006000E50E0008EB0E0008F10E0008290D00084F
:10007000390D0008490D0008590D0008690D0008E8
:10008000790D0008890D0008190B00087B1700087E
:10009000F11F00087B1700087B170008F70E000807
:1000A000751B0008851B0008911B00089D1B00089C
:1000B000A91B0008B51B0008C11B00086914000833
:1000C00081140008751400088D1400087B170008BF
:1000D0007B170008DD32000841330008A533000813
:1000E000FF0E00087B1700087B170008F11B0008B3
:1000F000011C00080D1C0008191C0008710B0008E9
:100100007B1700087B170008CD1B00087B17000831
:10011000BD1E0008D51E0008D91B0008E51B0008FD
:10012000990D0008A90D0008B90D0008C90D0008B7
:1001300010B5054C237833B9044B13B10448AFF321
:1001400000800123237010BD281000200000000053
:10015000BC24020808B5034B1BB103490348AFF3A5
:10016000008008BD000000002C100020BC24020804
:1001700010B512490A2309220968114800F0EAF96A
:1001800010490323022209680F4800F0E3F90F49E0
:100190001B231A2209680E4800F0DCF90D492B23B5
:1001A0002A2209680C4800F0D5F9BDE810400B4937
:1001B00032232C2209680A4800F0CCB9A80200209A
:1001C00044100020AC0200205C100020B00200208F
:1001D00074100020A00200208C100020A402002037
:1001E000A410002010B5044600F018FD034B204673
:1001F000BDE81040197800F079BC00BF1200002063
:10020000F8B50446056801F09FFB002223685B01F6
:1002100003F184431A6080232B600123AB622A61BF
:10022000EA606B61637973B1012B0FD001222368FF
:100230005B0103F18443C3F8802223685B0103F16F
:1002400084431A60F8BD4FF400436B644FF6FF72AD
:1002500000252368DA626E1CF7B23946204601F0A9
:1002600088FBE8B148F6FF72236817F0010F03F12D
:10027000340343F8252014BF6FF0FF026FF47F4270
:1002800023684FEA650503F1180353F8251001EAC6
:10029000020114BF68224FF4D0420A4343F82520DC
:1002A000042E3546D7D1C1E77047000038B5002588
:1002B000264A274C1368022043F01003136000F015
:1002C00023FE002001F04EF965602368182023F416
:1002D0000023236001F052F9102001F04FF900F0E3
:1002E00043F8A560102001F03DF9102001F054F909
:1002F0000028FAD000F039F8164801F059F9182012
:1003000001F030F9182001F047F90028FAD0022056
:1003100001F018F900214FF0006001F0E9F80E48F3
:1003200001F02CFA00F038F80C4B188800F05EFC55
:100330000B4800F05FFC0B4801F0E0FA00F02EF8EB
:1003400000F02DF8FFF7B0FF38BD00BF00200240DD
:1003500000100240080000203F190100100000209A
:10036000E5010008010200087047002108B50846B1
:1003700001F05EF94FF48061012001F059F900218C
:10038000022001F055F92D2001F062F9BDE8084086
:100390000021032001F04CB900F0CABD704700F005
:1003A00006BE000001498D460149084700C00020F3
:1003B000B503000808B5114B1A68114B9A4213D1C6
:1003C000104B114A934213D31BF060F900221146DF
:1003D000104602F065FD0D4B7BB11AF0F3FE52F8AA
:1003E000041B043343F8041C09498B42F7D3E7E7A5
:1003F0000022043343F8042CE3E7FEE7B070020860
:10040000000000202810002068230020C5B101084A
:100410002810002010B50D4B1A680AB90C4A1A6052
:100420001A680C49891A814204DB09494442511A6D
:10043000A14207DA1AF0C0FE0C234FF0FF3203602E
:10044000104610BD10441860FAE700BFBC10002031
:1004500068230020E8F60228002070474FF400537C
:1004600000204B607047012070474FF0FF3070470D
:100470000020704710B50C46FFF7FAFF20700120EE
:1004800010BD704770B515460C468E18B44201D1A8
:10049000284670BD14F8010BFFF7F3FFF6E7FEE7FF
:1004A000C38882889B1AC2888188914282BF028950
:1004B00001329B1898B2704710B50369044658681A
:1004C000FFF7EEFF88B123695B689A88196892B2DA
:1004D000885C99881A89C0B292B28A420FBF002202
:1004E0009A88013292B29A8010BD4FF0FF30FBE73C
:1004F00008B503695868FFF7D3FF08BD03695B6857
:100500009988DA8892B28A421FBF9A881B6892B291
:10051000985C14BFC0B24FF0FF3070470269916819
:100520008888CB889BB28342FAD1126813685B0635
:10053000FCD5704713B504698DF8071001220DF141
:100540000701204601F0B9FB0028F7D0012002B0D6
:1005500010BD000030B54FF0000C4FF47A75C0E9C3
:1005600001C5034D016105600275437530BD00BFD3
:10057000203A02082DE9F74303690446DB68884600
:100580008B42914625D3067D134D3601AB19477D2D
:10059000586818B10022597B01F0A2FA206901F0D5
:1005A00041FB39016A18127BAB19CDF804901B7B13
:1005B000695800932069AB5901F01FFC206942463D
:1005C000002101F040FC206903B0BDE8F04301F0D8
:1005D0004FBB03B0BDE8F083E8360208044B027954
:1005E0001B789A4202BF034B1B681860704700BF1C
:1005F000E0100020E4100020002310B50446036042
:1006000072B6054B19311970044B1860044801F09B
:1006100075F962B6204610BDE0100020E4100020FD
:10062000DD05000808B501211048FFF7E5FF0221AC
:100630000F48FFF7E1FF03210E48FFF7DDFF04211C
:100640000D48FFF7D9FF05210C48FFF7D5FF06211C
:100650000B48FFF7D1FF07210A48FFF7CDFFBDE8A0
:10066000084008210848FFF7C7BF00BFC01000209E
:10067000C4100020C8100020CC100020D010002092
:10068000D4100020D8100020DC100020F8B5064659
:100690000C4615468F18A74206D0336814F8011B84
:1006A0001B6830469847F6E72846F8BD70B5054602
:1006B0000C46084649B11CF09DF82B6802462146BD
:1006C0002846BDE870409B68184770BD0368C9B2F2
:1006D0001B68184703685B68184738B50D21054645
:1006E000FFF7F4FF0A2104462846FFF7EFFF2044F6
:1006F00038BD38B50546FFF7EDFF04462846FFF73D
:10070000ECFF204438BD2DE970439046994690B0E7
:1007100058EA090306469DF8585007D13021FFF7E3
:10072000D5FF0125284610B0BDE87083002440465F
:1007300049462A46002316F0C9FE80468946013400
:100740000DEB040303F8012C58EA0903EFD100254F
:10075000013C1DF804103046092994BF303137316F
:1007600049B2FFF7B3FF0544002CF1D1DAE72DE9D8
:10077000F0411D46002A75F1000307461446069E07
:1007800005DA2D21FFF7A2FF644265EB4505F6B2BD
:10079000069622462B463846BDE8F041FFF7B3BF28
:1007A00007B5CB1700920A46FFF7E1FF03B05DF8EB
:1007B00004FB38B50546FFF7F3FF04462846FFF76C
:1007C0008CFF204438BD07B5CB1700920A46FFF7CF
:1007D000CEFF03B05DF804FB37B5CB1700920A4695
:1007E0000546FFF7C4FF04462846FFF776FF20447E
:1007F00003B030BD07B5D2B2009200230A46FFF71E
:1008000082FF03B05DF804FB37B5D2B2009200233B
:100810000A460546FFF777FF04462846FFF75DFFC7
:10082000204403B030BD00002DE9F34717461E46B3
:100830008246002200233846314616F03BFA9DF8E6
:1008400028504FF00104F8B143A3D3E90023384600
:10085000314616F025FA00B90446E4B2002200231E
:1008600038463146C4B116F007FA18B12D2150466A
:10087000FFF72CFF04463C495046FFF72BFF04448A
:10088000204602B0BDE8F08735A3D3E900233846FF
:10089000314616F0FBF9DEE716F0EEF930B12D2106
:1008A0005046FFF713FF044606F100464FF00008DC
:1008B00000202E495FFA88F39D4206D900222C4B76
:1008C00016F092F808F10108F4E73A46334615F0BD
:1008D000ABFD06460F4616F011FE0A2302460093B2
:1008E00080460B4650468946FFF741FF0444002DE1
:1008F000C6D04046494615F01FFF02460B4630461B
:10090000394615F08FFD06460F4650461949FFF748
:10091000E1FE0444013DEDB2FF2DB1D0144B0022A5
:100920003046394615F036FF0F46064616F0CCF92C
:100930000A22014680465046FFF732FF04444046F3
:1009400015F0BEFE02460B463046394615F06AFDEC
:1009500006460F46DEE700BF800350726C92DF430D
:10096000800350726C92DFC33C3A02080000E03F03
:1009700000002440A04302089DF800100091FFF7FA
:1009800053BF00002DE9F04F1446A5B01F460022CA
:100990000023814688462E9D16F06EF900286AD005
:1009A000012608F100484FF0000A00203D49574554
:1009B00063DC02460B464846414615F035FD894644
:1009C000804616F0A9F9824615F06AFE02460B46EB
:1009D0004046494615F026FD4FF0000B80460020AA
:1009E000894631495F454FDC42464B4615F0D2FE01
:1009F00016F06AF93B4600905246002E4BD02B4928
:100A0000002628461BF0E2FC31467D2204A803960E
:100A10001BF082FAB4422846BCBF644201261BF098
:100A2000E9FEA04223D28022202103A81BF074FA01
:100A300028461BF0DFFE24AB241A1C44002304F8D4
:100A4000843C56BB28461BF0D5FE01301AF05CFEF4
:100A5000044629461BF070FE03A928461BF06CFED5
:100A6000214628461BF0F6FC20461AF055FE284683
:100A700025B0BDE8F08F064695E700220C4B15F037
:100A8000B3FF0AF1010A92E70022094B15F082FE3A
:100A90000BF1010BA6E70749B2E703A928461BF0B3
:100AA000D9FCE4E70000E03F0000F03F4B3A0208C9
:100AB000000024404C3A020810B50C461BF03CFEE6
:100AC000204610BD704710B50446007900F07EFD49
:100AD0002079BDE8104000F091BD026841F480111A
:100AE000936823F46023194391607047002330B565
:100AF0001C461D4603EB4302072B01FA02F203F1E9
:100B00000103D8BF15430A2B44EA0204F2D103685B
:100B1000DD6003681C6130BD70B5144C23681B6830
:100B20001D68A90707D51A6822F002021A60236817
:100B30009B6803B198476A0709D523681A68136848
:100B400023F00403136023681B6903B19847EB0784
:100B50000BD523681A68136823F001031360236818
:100B6000DB6813B1BDE87040184770BD1800002065
:100B700070B5144C23681B681D68A90707D51A684F
:100B800022F002021A6023689B6803B198476A0743
:100B900009D523681A68136823F0040313602368D7
:100BA0001B6903B19847EB070BD523681A681368D4
:100BB00023F0010313602368DB6813B1BDE87040C4
:100BC000184770BD20000020012203685B0103F17B
:100BD000844303F58673191F1A6018680028FCD136
:100BE00043F8042C0B68002BFCD17047014604200D
:100BF00000F01EBD10B50446054B1868A047054B14
:100C00001868A047044B18682346BDE810401847F1
:100C1000180000201C0000202000002010B5044611
:100C2000FFF751FF20464FF46021FFF756FF0122E6
:100C3000236820465B0103F18443C3F850212368F5
:100C40005B0103F18443C3F80021BDE81040FFF7C6
:100C5000BBBF007900F0BABC38B550F8313005465A
:100C60004C1E2BB1984701232A68A400A34053606F
:100C700038BD14230139594300680830435823F420
:100C8000405343EA0232425070470368142008334D
:100C9000013900FB01314A607047000000EBC103DD
:100CA00040F8312093F90430002B08DB0122591160
:100CB00003F01F0302FA03F3014A42F821307047A0
:100CC00000E100E014220368013902FB0131012335
:100CD000490101F18441C1F80031704714220368D1
:100CE000013902FB01310023490101F18441C1F8BE
:100CF000003170472DE9F04114251C4690464B1EEB
:100D00005D430668FFF7EAFF9DF81C30240244EAC1
:100D10008324089B08361C43069B77197451FB609B
:100D2000C7F80880BDE8F081024B01211868FFF781
:100D300093BF00BF5C000020024B02211868FFF740
:100D40008BBF00BF5C000020024B03211868FFF737
:100D500083BF00BF5C000020024B04211868FFF72E
:100D60007BBF00BF5C000020024B05211868FFF725
:100D700073BF00BF5C000020024B06211868FFF71C
:100D80006BBF00BF5C000020024B07211868FFF713
:100D900063BF00BF5C000020024B01211868FFF711
:100DA0005BBF00BF60000020024B02211868FFF704
:100DB00053BF00BF60000020024B03211868FFF7FB
:100DC0004BBF00BF6000002010B50D4C636CD8070E
:100DD00007D52368D90404D50A4B04211868FFF706
:100DE0003BFFA36DDA0709D52368DB0306D5BDE811
:100DF0001040044B05211868FFF72EBF10BD00BF3F
:100E0000000402406000002000000000000000001C
:100E1000012007E0022005E0032003E0042001E0B8
:100E20000520FFE70D4A0121116072B60C4A00212E
:100E30001160074902B4084902B486B005498E46DC
:100E4000704700BFAFF30080AFF30080AFF30080C6
:100E500000000061F9FFFFFF6D2E000814ED00E0B7
:100E600010E000E010B5084B044653F830204AB1BA
:100E700003EBC003586890470120044BA040586121
:100E800000BF00BF10BD00BFE810002000040140FB
:100E90002DE9F8430446884600270D4DD5F81490F7
:100EA000444504D96F6100BF00BFBDE8F883012647
:100EB000A64019EA060F08D0064BE10053F834208B
:100EC0001AB10B445868904737430134E8E700BF34
:100ED00000040140E81000200020FFF7C3BF0120FC
:100EE000FFF7C0BF0220FFF7BDBF0320FFF7BABF67
:100EF0000420FFF7B7BF09210520FFF7C9BF0F2165
:100F00000A20FFF7C5BF0000034A136823F0070358
:100F100018431060704700BF0020024010B504461F
:100F2000007900F053FB2079BDE8104000F066BB6B
:100F300008B50748FFF7F2FF0648FFF7EFFF06483E
:100F4000FFF7ECFFBDE808400448FFF7E7BF00BF2C
:100F5000D4000020DC000020E4000020EC00002091
:100F600070B50F250368CE0801F00700840053F820
:100F70002600092A05FA04F520EA050514BF1046E3
:100F80000820A0402843082A43F8260007D1012062
:100F9000DA6800FA01F122EA0101D96070BD092A7C
:100FA000FCD10122D86802FA01F10143F5E708B546
:100FB000032000F00BFBBDE80840032000F01EBB3F
:100FC0000268536823EA0101516070477FB500252C
:100FD000036804461A6801925A690292914A03957D
:100FE0001268C260426A920600F1D080426862B123
:100FF00050889588C607029940F19D80C90706D59B
:101000001288520042F001021A6104B070BD0299C8
:101010008E072DD5012D019A13DC22F480620192F6
:101020001A60226893690393019B43F40073019350
:101030001360002D33D02268536843F480635360FB
:10104000E3E7022D0CD142F4006201921A6022689B
:1010500093690393019B23F4806301931360EAE790
:1010600042F4806201921A6023689B690393E2E76D
:1010700002980299400601F0040133D5002933D1CA
:10108000032D01DC012D24D11869D38891685E1CE1
:10109000D680C8549388013B9380012DB5DCA38B87
:1010A000013B9BB2A383002B6BD04FF480612046A1
:1010B000FFF786FF636803F10C026260DB8913F0BF
:1010C000010F14BF40F2015240F2011223681A606E
:1010D0009BE7AB1E012BE0D84FF480612046FFF761
:1010E0006FFFDAE7002990D0032D1ED1019921F47A
:1010F000806101911960236891681869D388022D75
:1011000003F10106D680C854938803F1FF3393801E
:101110007FF47BAF236891681869D3885D1CD58004
:10112000C8549388013B9380B9E7022DE3D101991C
:1011300041F40071DDE7CE0709D51DB1596841F4CE
:1011400080615960138822685B0013615DE7029932
:10115000890744BF996903910299029E01F08001B9
:10116000760700F11981002940F02B81002D7FF4D2
:101170004CAF41075FBF019A42F4007201921A60BE
:101180008DE76360022384F823303EE7029A9207DA
:101190004AD59A6985600392039AD6060FD4039ABA
:1011A00012F0800F9A6830D010042AD59D68DB6851
:1011B00025F0FE05AD05AD0D03F0FE031D43039BB9
:1011C000606B13F0040326D038B1C3882BB1E36AF7
:1011D00003B198470022636BDA80236B53B11D8003
:1011E0000023226B1D469380A26A0AB1206B9047B0
:1011F000236BDD802268536843F4806353600323CC
:10120000C1E7DD68C5F34605D9E711049D68F9D546
:10121000C5F30905D3E70028ECD00580626BD380C5
:10122000E8E700BFFC220020029AD20615D59B6990
:10123000406B039338B1C3882BB1E36A03B198477D
:101240000022636BDA80019B226843F48063019380
:1012500011680B431360012395E70298029A00F08E
:10126000040012F0800218BF5A68996918BFC2F3CF
:1012700080220391039911F004010DD0216B002904
:101280006DD08B88CD885B1B002A6DD100283FF480
:10129000BCAE8DF802206AE08DF80310029A12F0BD
:1012A000400214BF59681146626B18BFC1F3802118
:1012B000EAB19688D588751BD9B1E8B9002D0EDD45
:1012C0001B699168DBB28DF80330D388032D03F1DD
:1012D0000100D0809DF80320CA543FF796AE4FF42A
:1012E0008061204604B0BDE87040FFF769BE154636
:1012F000E2E700283FF489AE032D26D1019A22F4BB
:10130000806201921A602368002D1B69DBB28DF8A0
:10131000033007DD636BDA889868561CDE809DF821
:101320000330835400293FF470AE2368012D1B69FC
:10133000DBB28DF80330D2DD636BDA889968501C1C
:10134000D8809DF803308B54C9E7022DDBD1019A78
:1013500042F40072D5E7002A3FF457AEBFE74AB324
:101360008DF802100B4609E000208DF802002BB129
:1013700088686E1CCE80415D8DF802109DF80210C9
:101380002068C9B20161002BE5D0002A3FF43DAED0
:10139000012B7FF43AAEA2E799B9002D3FF4E9AEF4
:1013A000D3889068591CD1802168C35C013D0B61D2
:1013B00095802AE600283FF428AE8DF802201346D7
:1013C000DCE7002D3FF4D5AED3889068591CD1805E
:1013D000C35C2168012D0B6105F1FF339380D8E7D1
:1013E00013B5036804465A6900929A6901921D4A2E
:1013F0001268C260009A02F470628260426A9206C9
:101400001ED54FF48061FFF7DBFD0268136843F4DB
:1014100080631360009B590519D56FF480620368DF
:101420005A61406B38B1C3882BB1E36A03B1984766
:101430000022636BDA80012384F8233002B010BDF0
:10144000009A520542BF1A6842F400721A600023E3
:101450002268536122689361FF2384F82330019B43
:10146000ECE700BFFC2200200148FFF7AFBD00BF42
:10147000F40000200148FFF7A9BD00BF2C010020A7
:101480000148FFF7ADBF00BFF40000200148FFF79F
:10149000A7BF00BF2C01002045F25552054B1A6032
:1014A0004CF6CC42586099601A604AF6AA221A603B
:1014B000704700BF003000404AF6AA22014B1A6074
:1014C000704700BF003000400028A8BF00F1604016
:1014D0004FEA0111B8BF054BC9B2B5BF00F00F000C
:1014E00000F56140195480F80013704714ED00E0D6
:1014F00010B5002421F0604121F07F01064A01432C
:10150000916060B20F210134FFF7DEFF3C2CF8D16F
:10151000F02382F8233010BD00ED00E00449054BB4
:10152000CA6802F4E0621343CB60BFF34F8FFEE75B
:1015300000ED00E00400FA05014B13F810007047BD
:10154000743A0208064B5A6822F0030202435A60BA
:1015500080005A6802F00C028242FAD1704700BF44
:1015600000100240030AC2B2012003F1804303F5D8
:101570000433196890400843186070470121030A3A
:1015800003F1804303F504331A68C0B201FA00F096
:1015900022EA000018607047030A03F1804303F554
:1015A00004331A680223C0B203FA00F010407047F7
:1015B000054A0168536823F474130B4341680968B2
:1015C0000B435360704700BF0010024010B5044643
:1015D000FFF7B2FF074B53F82020074800EB440009
:1015E000437803EBC20301229B0003F184431A609A
:1015F00010BD00BF64010020743A020810B5044613
:10160000FFF79AFF084B53F82020084800EB4400EE
:10161000437803EBC20301229B0003F184431A6069
:1016200000221A6010BD00BF7C010020743A02083D
:1016300010B5054A054C536854F8200023EA00030E
:101640000B43536010BD00BF00100240603A020817
:1016500010B50446FFF770FF074B53F820200748EA
:1016600000EB4400437803EBC20300229B0003F12C
:1016700084431A6010BD00BF70010020743A020854
:1016800001EBC000800000F184400260704710B59B
:1016900004460079FFF79AFF2079BDE81040FFF774
:1016A000ADBF012206210068FFF7EABF0022062134
:1016B0000068FFF7E5BF10B50C46016803464A68AD
:1016C00022F0E0024A6002681268624012F4205F71
:1016D00001D0FFF7EBFF1A6818461460BDE8104010
:1016E000FFF7DFBF134343F004031943FFF7E3BFE2
:1016F0000122006811460430FFF7C2BF00680022D3
:1017000001210430FFF7BCBF006801220021043032
:10171000FFF7B6BF002203685B0103F18443C3F8FF
:1017200080207047F8B51046069C9DF81C709DF807
:1017300020609DF8245081B10B2239462046FFF7E6
:101740000FFC042231462046FFF70AFC0B222946F3
:101750002046BDE8F840FFF703BC19460422FFF716
:10176000FFFB042239462046FFF7FAFB0B223146E5
:101770002046FFF7F5FB0422E9E7FEE70722024BCC
:1017800058601A60704700BF10E000E0044A136818
:1017900001331360034B1B6803B11847704700BF48
:1017A000FC2200206811002011F0010F70B501F13A
:1017B000FF340DBF082500256FF0FF016FF47F4156
:1017C0000068C4F34004183050F8246013433140DB
:1017D000AB400B4340F8243070BD38B51446056863
:1017E000EB682A691340234206D0023150F82130B9
:1017F00013B1E44398472C6138BD01220021FFF763
:10180000ECBFF8B506680746F56833691D4015F06A
:10181000400403D0046A0CB1A0474024AB0604D5B1
:10182000FB6913B1984744F02004E4433461F8BDE8
:10183000F8B507680646FD683B691D4015F01004C1
:1018400003D084690CB1A0471024290704D573691B
:1018500013B1984744F008046A0704D5336913B1FB
:10186000984744F00404AB0704D5F36813B19847D4
:1018700044F00204E4433C61F8BDF8B5076806464D
:10188000FD683B691D4015F0400403D0046A0CB1AB
:10189000A0474024EB0604D5B36913B1984744F040
:1018A0001004280704D5736913B1984744F008045D
:1018B000690704D5336913B1984744F00404AA07B3
:1018C00004D5F36813B1984744F00204EB0704D53C
:1018D000B36813B1984744F00104E4433C61F8BD98
:1018E00002684B1E02F1404220329B0003EBC20310
:1018F00001229B0003F184431A60704710B504462F
:101900000948A0470948A0470948A0470948A047F7
:101910000948A0470948A0470948A0472346BDE811
:1019200010400848184700BFA8010020D00100203F
:10193000F4010020180200203C0200206002002078
:101940006C0200207802002010B504460079FFF7F1
:101950003DFE2079BDE81040FFF750BE002302682D
:1019600013600268D3604279012A9CBF0268136247
:10197000704703791E2B10D9212B0ED0202B0ED9A6
:10198000222B01D0252B04D102298CBF002001205D
:1019900070474B1E58425841704701207047002045
:1019A000704700008B1C40F82320012342798B40B4
:1019B00010B5DB43EAB1012A41F65F6218BF01228C
:1019C0001340012204682361036803F140430C3390
:1019D00001EBC3039B0003F184431A60427903794E
:1019E0003ABB072915D8DFE801F007151515151AB8
:1019F0001A1F41F6FF62E3E71A2B0CBF19232C23B1
:101A00000122590903F01F0302FA03F3254A42F8A1
:101A1000213010BD1A2B0CBF1B232E23F0E71A2BED
:101A20000CBF1A232D23EBE71A2B0CBF18232B23F3
:101A3000E6E71B3B0C2BECD801A252F823F000BFC9
:101A4000A11A0008751A0008791A00087D1A000802
:101A5000811A0008851A0008131A0008891A00085C
:101A60008D1A0008911A0008951A0008991A0008A2
:101A70009D1A00081D23C3E71E23C1E73223BFE7D9
:101A80003623BDE73723BBE71823B9E71923B7E7A8
:101A90001A23B5E72B23B3E72C23B1E72D23AFE7B8
:101AA0001C23ADE700E100E00022036803F140439E
:101AB0000C3301EBC3039B0003F1844302311A6032
:101AC00040F82120704738B504460D4613460022E1
:101AD000FFF76AFE29462046BDE83840FFF700BF01
:101AE00038B543790546022B0C4615D0042A13D885
:101AF000DFE802F003132A2D3A00FFF7D5FF026852
:101B0000631E02F1404220329B0003EBC20300221D
:101B10009B0003F184431A6038BD0022036803F17F
:101B200040430C3301EBC3039B0003F184431A6071
:101B30000823602221462846FFF736FE2146284624
:101B4000BDE83840FFF7CCBE00231022F2E74FF289
:101B5000F11203689A61032203689A600368012204
:101B60005B0103F18443D6E70122BDE83840FFF76B
:101B7000AABF0000802207210148FFF72EBE00BF48
:101B8000A80100200148FFF738BE00BFA8010020CF
:101B90000148FFF736BE00BFA80100200148FFF74B
:101BA00047BE00BFA80100200148FFF766BE00BF86
:101BB000D00100200148FFF760BE00BFF401002003
:101BC0000148FFF75ABE00BF180200200148FFF786
:101BD00054BE00BF3C0200200148FFF70EBE00BF0C
:101BE000600200200148FFF708BE00BF6C02002021
:101BF000802207210148FFF7F0BD00BF78020020D6
:101C00000148FFF7FABD00BF780200200148FFF746
:101C1000F8BD00BF780200200148FFF709BE00BFF1
:101C20007802002000223F2110B50446436810309E
:101C30009A801860DA801981A3689A80DA8004F1AA
:101C4000500219811A6094F89000FFF7BFFC94F9D4
:101C50009130002B08DB0122591103F01F0302FA17
:101C600003F3024A42F8213010BD00BF00E100E05A
:101C70000368DA6842F02C02DA60DA6842F4005253
:101C8000DA60704710B5036881688C88CA8892B2A0
:101C9000A242FAD1DA68910402D51A685206F9D53F
:101CA000DA6822F40052DA60426893889BB2D380EB
:101CB000826893889BB2D38010BDF0B50B46064670
:101CC0000468B568581AAF88ED88ADB2BD4204D13A
:101CD00025682D0601D5824210D8E36823F08003E1
:101CE000E3609042B3680DD39A88DB889BB293423D
:101CF0001EBFE36843F08003E360F0BD13F8010BFF
:101D00006060DEE7DD889F880135BD42ECD0DF886A
:101D10001D89ADB2BD4203D19D88ADB2002DE3D087
:101D2000DD8811F800C01F68ADB207F805C0DF8874
:101D30001D890130ADB2BD420FBF0025DD880135E0
:101D4000ADB2DD80CDE7D36870B59B0609D51368C9
:101D50009E0606D513689D0702D41368DC071CD5C0
:101D60005368D368180617D513681B0614D58888DE
:101D7000CB889BB283423BD08B8808689BB2C05C07
:101D80008C880B89C0B29BB2A3420FBF00238B8803
:101D900001339BB28B80506070BD5468C3888588C6
:101DA0000133AB42E4B2056807D0C68803899BB211
:101DB000B3420FD183889BB263B983889BB2EB5C3B
:101DC000868803899BB2B3420FBF00238388013307
:101DD0009BB28380C3889BB2EC54C48803899BB2B6
:101DE000A3420FBF0023C38801339BB2C380B8E76F
:101DF000D36823F08003D360CEE770B51E46054656
:101E0000084611460422059CFFF7AAF80B229DF80C
:101E100010103046FFF7A4F829686302CA6803F47B
:101E2000F05322F4F0521204120C1343CB602A68D0
:101E30002402136904F4405423F440531B041B0C84
:101E40001C43146170BD38B50546144611B900F045
:101E50004DF8014619235943A200B1FBF2F2642167
:101E6000B2FBF1F001FB10231B013233B3FBF1F3A2
:101E700003F00F032C6843EA00139BB2A36038BD44
:101E800010B50446084B1868A047084B1868A047CF
:101E9000074B1868A047074B1868A047064B1868FF
:101EA0002346BDE810401847A8020020AC020020DD
:101EB000B0020020A0020020A4020020024A034930
:101EC0000348FFF740BF00BF004C004078110020DE
:101ED0006C110020024A03490348FFF734BF00BFDA
:101EE00000500040901100208411002008B590F8A7
:101EF0009000FFF721FB20B10128034818BF002004
:101F000008BD0248FCE700BF00A24A0400512502B8
:101F100030B548F28005094C226822F4804222F054
:101F200070022A4342402260236823F4E04323F0F6
:101F300040032B434B40236030BD00BF005C00409A
:101F4000284B072818BF18701A78052A48D8DFE8E8
:101F500002F003131E232B364FF6FB71224A106C3E
:101F6000014011644FF43F41116406221A701F4B67
:101F70001B685A7B1A7370474FF6FB711A4A106C34
:101F8000014011644FF43F411164042202E0022237
:101F90005A7003221A7006E05A78013AD2B25A7087
:101FA0005A78002AF1D070470F490A6C92B242F079
:101FB00010020A6405221A700A225A7070475A7871
:101FC000013AD2B25A705A78002AECD14FF6EF7229
:101FD0000549086C02400A64044A1268517B117377
:101FE0000622D7E704230020005C0040980500206B
:101FF0002DE9F0415F4D604A2B68546C1B68A4B218
:1020000023405E0506D56FF4806353645B4B1B6809
:102010005B6898472A6813682340980442BF6FF4AE
:102020000051554B596413682340D90406D56FF409
:10203000C052514B00205A64FFF782FF2B681A6888
:10204000224012050FD54C490A6C92B242F00800AA
:1020500042F00C0208640A641A7B5A7303221A7352
:102060006FF4C0524A641A682240970542BF6FF469
:102070000071414A51641B682340DE0506D56FF4A8
:1020800080723D4B07205A64FFF75AFF2B681B688C
:102090001C40240403D5384C676C3B0401D4BDE8D4
:1020A000F0816FF4004317F00F06636438D148F6EF
:1020B0008003D4F8008018EA030FECD01FFA88F3ED
:1020C0002F4D304E03F440524FF4005003F03003D4
:1020D000202133802A80FFF71BFFF80623680ED4E7
:1020E00023F4E14323F070031B041B0C236000F076
:1020F0009DFD31882888BDE8F041FFF709BF18F041
:10210000800FEDD123F070031B051B0D18F4006F39
:10211000236002D000F0A8FBEBE700F005FDE8E744
:10212000B40004F1804404F5B844276839040DD59F
:10213000236823F070031B051B0D23602A6806F13A
:1021400080439268013B52F8233098473A06A2D563
:10215000236806F1804623F4E14323F070031B0457
:102160001B0C23602B68013E5B6853F826309847B0
:1021700091E700BF98050020005C00400C23002080
:102180000023002002230020800000F1804000F5A1
:10219000B840036823F4804323F0700343F4004302
:1021A00043F08003594001607047000018B90722CE
:1021B000024B1B681A820248704700BF342300207C
:1021C000080600200022012110B5104B1B689A72EE
:1021D0000F4B19640F4908680260086804681C64A2
:1021E0004FF4E0545A640460086804681C644FF4B7
:1021F0003F445A6404600868006818644FF4801013
:10220000054B18600B681A7310BD00BF3423002003
:10221000005C00409805002000E100E013B5104B81
:102220001A68137803F07F03212B16D1022808D0F7
:10223000222801D0022405E093780A4A03F0030320
:1022400013700024084B1B6823B102A901F8010D8B
:1022500002209847204602B010BD0224FAE700BFD2
:1022600034230020E8110020E411002021B90128C6
:102270008CBF02200020704702207047054B1B686E
:102280009B78032B04D8044901EBC30100F0BEBACC
:102290000020704734230020F0050020014900F0A1
:1022A000B5BA00BFAC050020014900F0AFBA00BFCD
:1022B000B405002037B5114C2268127802F07F0275
:1022C000212A02D0022003B030BDA0F12003012B4F
:1022D0000B4B0C4D1B6888BF002523B102A901F8E8
:1022E000010D02209847002DECD0236800249D6149
:1022F0005C822046A8472046E5E700BF3423002043
:10230000E4110020AD2100082DE9F04700254FF031
:10231000C00948F68F1648F280074FF0400A434B39
:10232000434C1B68DFF838819D7283F8099025655E
:1023300023682846334043F400732360236803EA8C
:1023400008033B4383F010032360226D394B520096
:1023500043F802A08022236D5B0003F1804303F564
:10236000C0431A60236823F4E24323F070031B0484
:102370001B0C2360304B1B6893F82C1000F072F894
:102380004FF440512846FFF7FFFEA368294633402B
:1023900043F4C063A360226D284B520013444FF4F2
:1023A00080721A60A268022002EA08023A4382F0B0
:1023B0002002A260FFF7E8FEE36851463340E36085
:1023C000226D1F4B520013444FF4887203201A6091
:1023D00000F048F84FF440510320FFF7D5FE636842
:1023E00029461E406660226D164B520043F802904B
:1023F0006368012003EA08033B4383F02003636022
:10240000FFF7C2FE0122104B28461B681A7300F02A
:10241000EDFBFF220D4B1D600D4B1D600D4B1D6034
:102420000D4B1D600D4B1A70BDE8F0873423002062
:10243000005C0040086000400C2300202060004049
:10244000386000401060004098050020EC1100202A
:10245000F0110020F8110020FC110020F4110020E0
:10246000BF8FFFFF0E4B0F4A1B6D3E2903EBC000D1
:102470004FEA400002440ED94B09C80608BF03F1D9
:10248000FF33C1F3090108BF9BB241F4004141EAA7
:102490008321116070474B08C80748BF0133F6E736
:1024A000005C00400C60004010B5064C18B90122D9
:1024B00023681A8210BD044B1B681B68984720686C
:1024C0000A30F7E7342300203023002010B5064CF3
:1024D00018B9012223681A8210BD044B1B689B683F
:1024E000984720680C30F7E7342300203023002081
:1024F00010B51E4B1C68002310B90223238210BDA7
:102500001B4803802178024611F07F0112D1617AC5
:102510008C0644BF02230370037848064CBF23F0A7
:10252000010343F001031370124B1B681B699847AA
:102530000F48E4E70129E2D0022915D1217901F001
:102540000F039B0003F1804303F5B84309061B68A2
:1025500005D503F03003102BE6D10123E3E703F4A4
:102560004053B3F5805FF7E71846C8E734230020EF
:1025700006230020302300202DE9F843234FDFF805
:10258000A0803D682C8AD4B92E7A042E17D1204918
:102590000B78012B0ED11F4B1A681F4B92B21344BC
:1025A0005B001C6030230C70A8F800303B681E7282
:1025B000BDE8F88310230726A8F80030F6E7AB8AB9
:1025C0009C4294BF042602269C4228BF1C46AB694D
:1025D000204698478146002000F0BAFB224601467B
:1025E000484600F052FB2146002000F0CDFB2B8A2C
:1025F0004FF440521B1B2B826B8A1C443023A8F8DB
:102600000030064B6C821A80D0E700BF34230020D4
:1026100000120020505C0040023000200023002007
:102620000223002010B50A4B0A491B6849789A78A2
:1026300091420AD3D97841B99C8834B99A72064B31
:102640001B685B689847204610BD0220FCE700BF6E
:1026500034230020EC0500203023002038B50F4A39
:102660000F4D12682B6892699978187990472B68FA
:1026700004469A7A7AB170B95A7962B9DB7853B95B
:10268000084B1B68DB6898472B681A79DA729A78CE
:102690001A73204638BD0224FBE700BF0C2300203C
:1026A000342300203023002038B52B4B1B681878CA
:1026B00010F07F0004D15A7A22F020025A7238BDFD
:1026C000022847D15A88002AF9D15A79002AF6D12E
:1026D0001979224D21F08000840004F1804404F532
:1026E000B844226849B22D780029B4BF02F0300204
:1026F00002F4405285422DD962B39B7A53B300292C
:10270000236811DA03F03003102B07D1C4B220463E
:1027100000F00BFB3021204600F0DFFA104B1B6865
:102720005B6998470020CAE703F44053B3F5805F24
:10273000F4D10C4D58B90C4B93F82C1000F032FB2F
:1027400023682B409BB283F440532360E6E700F0FC
:10275000D9FAF5E70220B2E734230020EC05002087
:10276000302300208FBFFFFFBC05002038B51B4B76
:102770001B4D18682D78017921F08004A30003F126
:10278000804303F5B8431A6849B20029B4BF02F088
:10279000300202F44052A5421DD94488DCB9D2B1BE
:1027A000827AC2B11A680029B5BF22F4E04222F44D
:1027B000804222F0400222F07002B5BF92B292B283
:1027C00082F0100282F480521A60064B1B689B69EB
:1027D0009847002038BD0220FCE700BF34230020CA
:1027E000EC0500203023002008B5064B1A68537A08
:1027F00043F020035372044B1B68DB6998470020A9
:1028000008BD00BF342300203023002010B5054B45
:102810001C68628A18B98B889B1A238210BD0868CD
:102820001044FBE73423002008B50B4B002093F83D
:102830002C1000F0B7FA094B1B68187A082806D14B
:102840004FF48052064B1A801022064B1A80A0F1DA
:1028500009035842584108BDBC050020342300201C
:10286000002300200223002073B5964C964E216869
:1028700032680B7A092B16D0944B92B213445B004A
:102880001B885B0003F1804303F5C0431A780A708C
:102890005978226851709988226851801989226874
:1028A00091809B89D380012223681A72DA885D782F
:1028B000002A64D11A7812F07F024DD1092D03D17C
:1028C000FFF7B0FE40BB16E0052D20D193F90220A2
:1028D000002A07DA08232268137202B0BDE87040AC
:1028E000FFF7A2BFDA78002AF4D19A88002AF1D142
:1028F0009B7A002BEED13268754B92B213440022C2
:102900005B001A603022734B1A800623E3E7032D25
:1029100014D19A78012A08D06F4B28461B685B694E
:102920009847032828D10923D5E79A88002AF3D1AC
:102930005B7A9A06F0D5FFF757FFC3E7012DEBD17D
:102940009A78012AE8D19A88002AE5D15B7A9B0619
:10295000E2D5FFF7A9FEB5E7012A04D10B2DDBD1A3
:10296000FFF77CFEAEE7022AD6D1012DF1D0032D70
:10297000D2D1FFF7FBFEA5E70028ABD1BBE7062DC0
:1029800012D11A7855065AD1DB78534A012B1268B6
:1029900002D1D369DBB952E0022B01D1136AF9E706
:1029A000032B4CD1536AF5E7002D54D159880029E7
:1029B00045D15A6822F0FF02B2F5003F3FD11A78A4
:1029C00012F07F0216D19B88002B38D1434B002593
:1029D0002268284655829361984728464FF6FF7132
:1029E00023681A8A8A4233D0022801D0002A55D19E
:1029F00008222EE0012A0AD1374A18791268926912
:102A00009047E0B923689B7A002BDFD117E0022AB8
:102A100015D11A7902F00F018B00100603F18043E3
:102A20002F4803F5B8431B6800784CBF03F0300310
:102A300003F44053884202D912F0700FE4D0264BC1
:102A400022681B6850781B6998470328C6D1236801
:102A500009221A7241E7082D04D11B785B06EED1DA
:102A6000204BB4E70A2DEAD11A7802F07F02012A3E
:102A7000E5D19A7A002AE2D059880029DFD15A6834
:102A800022F0FF02B2F5803FD9D1134A18791268BB
:102A9000926990470028D2D1134B98E793F9001020
:102AA000002936DAD9880C4C0191019824688242B9
:102AB0001CD9019A1A8294F82C209A82FFF75CFDA7
:102AC0000BE700BF34230020505C0040043000209E
:102AD00002300020022300200C230020F1240008F3
:102AE000EC050020A9240008CD2400088A42E2D287
:102AF00094F82C00824203D20021094A1170DAE7CF
:102B000092FBF0F100FB1122002AD4D1044A0121EA
:102B1000F4E703221A724FF44052024B1A80DCE6AB
:102B20000012002000230020F8B52A4E3468237AD2
:102B3000032B01D0052B44D1A369B3B1258AA5B1DC
:102B4000A28A954228BF154628469847238A0746F9
:102B50005B1B2382638A00202B44638200F006F90A
:102B60002A460146384600F09FF8238A53B10021D7
:102B70004FF44052184B08461A8000F005F93022F5
:102B8000164B1A80228AA18A3368914209D80322FF
:102B90001A7233681B7A32681372BDE8F840FFF787
:102BA00043BE0AB10522F3E7062119720C4B1968DE
:102BB0000C4B89B20B445B001A603022074B1A8021
:102BC000E7E7072B03D1084B1B68DB68984708230E
:102BD000E1E700BF3423002000230020022300206F
:102BE000505C0040023000200C230020002210B571
:102BF0000C4B1C78A24204D30B4B40F080001860B1
:102C000010BD02F1805303F5B8539B00196821F4FD
:102C1000E04121F070010904090C114319600132EF
:102C2000E8E700BFEC0500204C5C004010B5134CF9
:102C300023681A7A022A01D0042A09D1FFF79CFCE2
:102C400023681B7A22681372BDE81040FFF7ECBDC1
:102C5000062A10D15A78052A09D11A78520606D1C7
:102C60009878FFF7C3FF064B1B681B6A9847054B14
:102C70001B689B6898470823E4E700BF34230020C3
:102C8000302300200C230020704701F10051013255
:102C900001F540515210490002B9704730F8023B2B
:102CA000013A21F8043BF7E701F1005101F54051E9
:102CB000F0B54900540823460D46861E33B9D307A4
:102CC00044BF11F8243000F81430F0BD2F68013BE8
:102CD00026F8027F9BB20435F0E7800000F18040C7
:102CE00000F5B8400368CA0623F4E04323F040032C
:102CF0009BB248BF83F010038A0648BF83F02003CD
:102D000003607047800000F1804000F5B840036820
:102D10005B0409D5036823F4E04323F070031B042C
:102D20001B0C43F4804303607047800000F1804037
:102D300000F5B84003685B0609D5036823F4E04357
:102D400023F070031B041B0C43F040030360704727
:102D5000054B1B689BB203EBC00000F1005000F56F
:102D60004050400000887047505C0040044B1B6896
:102D70009BB203EBC000034B03445B001888704711
:102D8000505C004004300020044B1B689BB203EBF6
:102D9000C000034B03445B0019607047505C004067
:102DA000023000200D4B0E4A1B683E299BB203EBFC
:102DB000C00002444FEA42020AD94B09C80604BFC8
:102DC00003F1FF339BB29B0243F40043136070474F
:102DD0004B08C90748BF01339B02F7E7505C00402E
:102DE0000630002013B504468DF8071001220DF1BE
:102DF00007012046FEF761FF0028F7D002B010BDA2
:102E000038B505464C1E14F9011F01B938BDC9B2C9
:102E10002846FFF7E7FFF6E708B5134B03221C68C7
:102E200001212046FEF79CF8002301211A46B2F545
:102E3000007F0CD072B1B3F5007F01D100230A44AA
:102E40009A420CD90225206805610133EFE74FF063
:102E5000FF31F0E7B3F5007F4FF00101EED02068BD
:102E60004FF40035F0E700BF5C3A020808B5034BA9
:102E70000BB100F045F862B6FFF7CEFF012F000856
:102E800008B5044B23B100F05BF80349FFF7B8FF26
:102E9000FFF7ECFF412F0008473B0208FDF706BA99
:102EA00008B501F00DF801F0E9F8FCE718F034BCC2
:102EB00032280BD8064B03EB001043681A68437B9B
:102EC000343203F18043013B42F82310704700BFC6
:102ED000E836020838B50C460546072104EB042401
:102EE00000F046F8A1B22846BDE83840FFF7E0BF41
:102EF000002203685B0103F18443C3F8002170479B
:102F00004FF0FF3310B50A4C0A48C4F88030C4F8BB
:102F10008430FEF7F3FC0848FDF76CFE0748FEF727
:102F2000AFFF4FF4002323604FF48013236010BDE4
:102F300000E100E05D190008F12E0008851C000882
:102F400010B5094B094C18680B220221FEF708F84E
:102F50002068FEF767FE20684FF416520021FEF746
:102F600072FF206810BD00BF583A0208AC02002072
:102F7000322838B53BD8082939D8DFE801F00529CF
:102F8000171A1D201723260000240322184B0001C6
:102F90001D18297B1858FDF7E3FF686838B3697B73
:102FA000CCB1BDE838400122FEF79ABD00240422CE
:102FB000ECE700242246E9E700240922E6E70024A2
:102FC0000822E3E701240B22E0E701240F22DDE7DA
:102FD00000240722DAE702684B1E02F14042203249
:102FE0009B0003EBC2039B0003F184431C6038BDCC
:102FF000E836020808B501211048FDF7FDFA022164
:103000000F48FDF7F9FA03210E48FDF7F5FA042100
:103010000D48FDF7F1FA05210C48FDF7EDFA062100
:103020000B48FDF7E9FA07210A48FDF7E5FABDE884
:10303000084008210848FDF7DFBA00BF041200204D
:10304000081200200C120020101200201412002080
:10305000181200201C12002020120020322810B567
:103060000ED8084B00011C181B58B1FA81F11A68E0
:103070000123207B49098340090103FA01F1116111
:1030800010BD00BFE83602080A4A0B4B11689B6866
:1030900000BF00BF12688A42F6D14820C3F58C33C6
:1030A00003F5A073B3FBF0F34FF47A7000FB02302A
:1030B000704700BFFC22002010E000E038B5044655
:1030C000FFF7E2FF05465CB1FDF7FCFCFFF7DCFF14
:1030D000401BB0F57A7FF6D3013C05F57A75F5D142
:1030E00038BD28B10C234343013B18460138FDD8B5
:1030F000704700000449054BCA6822F4E0621204DC
:10310000120C1343CB60704700ED00E00003FA059A
:10311000704770470120704710B5144C2068FDF7C8
:1031200053FD04212068FDF7E1FC012210492046EF
:1031300013F0E2F80023A0220E49204613F02AF9EA
:103140000121204613F04EF9236819684A6842F4B9
:1031500080724A6019688A6842F002028A601A68BE
:10316000936843F48003936010BD00BF28120020D1
:103170006C3B020826120020242805D1034B044A88
:103180001B88C3F389031380704700BF26120020F9
:1031900024120020044B03EB00135B6813B1C0B290
:1031A000FFF798BE704700BFE8360208FEF7B6B9D1
:1031B000024B1A68024B1A60704700BF18000020CB
:1031C0002812002010B5074C032294F84C10206CF4
:1031D000FDF7C6FE236C94F84C101A6801238B404F
:1031E000136110BDE8360208062838B58CBF0025EB
:1031F0000A4B0B4C98BF1D5C2046E46600F051FA68
:103200002946204600F05FFA2046012100F068FAC6
:103210002046BDE83840002100F088BA6D3B020826
:10322000A4120020FF21014800F0B0BAA41200202F
:103230000B4602460021014800F060BBA4120020AA
:103240000146014800F0E2BBA412002070B50D4613
:10325000064C0146204600F0D9FB29462046BDE831
:10326000704001234FF4007200F0C4BBA412002090
:1032700003468288016892B2885C99881A89C0B234
:1032800092B28A420FBF00229A88013292B29A808B
:10329000704738B5C38882880133934204460D468F
:1032A00007D0C28803899BB2934214D183889BB212
:1032B0008BB92046FFF7DCFFE38822689BB2D55428
:1032C000E28823899BB293420FBF0023E388013336
:1032D0009BB2E38038BD4FF0FF30EDE770B5164B81
:1032E0001A68164B95681C68DE68194616F0200FA0
:1032F00019D0A00617D5A1070FD05B6832060BD5F1
:10330000230609D5AA88EB880C4C9BB293420ED0B9
:103310002846FFF7ADFF606070BD59685068C9B2BC
:10332000FFF7B7FFEAE7200748BF4B68E6E7E36827
:1033300023F08003E360EFE7A8020020003801409B
:1033400070B5164B1A68164B95681C68DE681946EE
:1033500016F0200F19D0A00617D5A1070FD05B6873
:1033600032060BD5230609D5AA88EB880C4C9BB2F4
:1033700093420ED02846FFF77BFF606070BD59680E
:103380005068C9B2FFF785FFEAE7200748BF4B68DE
:10339000E6E7E36823F08003E360EFE7AC02002098
:1033A0000044004070B5164B1A68164B95681C68AF
:1033B000DE68194616F0200F19D0A00617D5A10710
:1033C0000FD05B6832060BD5230609D5AA88EB8897
:1033D0000C4C9BB293420ED02846FFF749FF606029
:1033E00070BD59685068C9B2FFF753FFEAE720077C
:1033F00048BF4B68E6E7E36823F08003E360EFE74C
:10340000B00200200048004038B51749174D184C4D
:103410000A23092209682846FDF79CF82C60154903
:10342000154D0323022209682846FDF793F82C6006
:103430001249134D1B231A2209682846FDF78AF802
:103440002C601049104D2B232A2209682846FDF7CD
:1034500081F82C600D490E4D32232C220968284634
:10346000FDF778F82C6038BDA80200202C1200204F
:103470007C3B0208AC02002044120020B002002075
:103480005C120020A002002074120020A402002080
:103490008C12002001398B00012102689940516093
:1034A000704703689A689107FCD59A681206FCD4A5
:1034B0007047436823B1417B00221846FEF710BBDA
:1034C00070470000172806D0182806D01628044890
:1034D00018BF00207047034870470348704700BF7B
:1034E0009C700208A0700208A47002082DE9F04F39
:1034F000814687B000798A46FFF7E4FF60B305781C
:10350000174C46782D012B198778360190F80380E7
:1035100006EB040B1846059304EB0717FFF7C9FFEA
:103520005846FFF7C6FF04EB08183846FFF7C1FFFF
:103530004046FFF7BEFF98F80C20059B51461B7BC9
:1035400003923A7B484602929BF80C200192325932
:1035500000922A59FEF7E6F807B0BDE8F08F00BFE9
:10356000E836020810B50C46FDF7E6FF90B10228D8
:10357000094B88BF002300225B089C42D0B205D2D1
:103580000132072A4FEA5303F7D11046034B034495
:10359000187B10BD024BEEE700A24A049C700208A3
:1035A000005125022DE9F041034604466C302C4DB4
:1035B00000221D6001255A731D735A60C3E907225A
:1035C00024339842F3D124224B1E02FB03430229E9
:1035D000E366DFF8AC80234E39D003293CD0A94202
:1035E00001D1214B1C60214B214F1B6821682361B5
:1035F0001879FFF7B7FF3B680225A36103236375C2
:10360000D8F80030A06063632575616A1879FFF708
:10361000A9FF3B68E062E363052384F839300423A3
:1036200084F838303368A16CA3651879FFF79AFFE6
:10363000104B00221B6820652366012384F85C3050
:10364000E36E84F85D50DA732046BDE8F081D8F867
:1036500000306363084BC5E73368A365074BC1E7D8
:1036600000093D008C01002014130020840100207B
:103670005C00002060000020181300201C130020B4
:1036800088010020C06E037B4268012B0CBF002321
:10369000802342F440721343017A427B0069FEF7B3
:1036A00021B810B50446C36E1869FDF7F0FFE36E4C
:1036B00001211869FFF71AFF2046FFF7E3FF0122F7
:1036C000E36EDA7310BDC36E9960C36E01F038010A
:1036D0001B691A68136823F0380319431160704797
:1036E000C36E1973C36E1B691A68136823F08003D5
:1036F00009B943F0800313607047F8B507460C46DC
:10370000C36E04F400645960C36E186903681E68D0
:103710001D68FDF7CBFFFB6E26F400661B69344382
:103720001B6805F006052C431C60F8BDC36E597379
:10373000C36E01F003011B691A68136823F00303C9
:1037400019431160704738B515460446117BFFF7E1
:10375000C7FF697BFFF7EAFF6968FFF7CEFFE36EFB
:1037600029681B691879FFF7FDFE01462046FFF71F
:10377000AAFFBDE83840FFF794BF7047C36E1B69CE
:103780001B68D960C36E1869FFF78BBE10B5C36E96
:103790001C6923682046DA68D960FFF782FE236837
:1037A000D868C0B210BD0000F0B50546C36E85B044
:1037B000986917460E46FDF74CFAE86E4468017D9D
:1037C000A4F500635C425C4103691A688223CDE979
:1037D0000143009723460C328069FDF78BFAE86EAF
:1037E0000369417D1A68C6B91023CDE901430D4B29
:1037F000009323460C328069FDF77CFAEB6E0022C1
:10380000597D9869FDF735FA0322EB6E197D9869A9
:1038100005B0BDE8F040FDF72CBA90230096CDE945
:103820000143E6E7983B020870B504460D4611B91E
:103830000025284670BDC36E1A6912689168CE07CC
:1038400048BFD2680422DA73C36E2A46197D98698C
:10385000FDF71BFAE36E2A46597D9869FDF715FAC4
:10386000E36E197D9869FDF72DFAE36E597D98692D
:10387000FDF728FAE36E1869FDF746FFE36E186955
:10388000FDF736FFE26ED369002BD1D193691A4957
:103890001E68537D0D68013B9B00DBB23068D84049
:1038A000800727D40868401B6428F7D902251069CF
:1038B000FFF7F7FDE36E1869FDF720FFE36E186967
:1038C000FDF728FFE36E597D9869FDF707FAE36E6F
:1038D000197D9869FDF702FAE36E197D9869FFF783
:1038E000D9FDE36E597D9869FFF7D4FD0122E36E9F
:1038F000DA739EE70025DAE7FC22002038B504469B
:103900001D46FFF751FF29462046BDE83840FFF726
:103910008BBF7FB5054614460E46C36EE401986919
:10392000FDF797F9E86E44F012044368417DA3F572
:1039300000625342534102691268CDE90134009696
:103940000C328069FDF7D6F90022EB6E597D98693B
:1039500004B0BDE87040FDF78CB9000070B50446B6
:103960000D4611B90025284670BDC36E597D986972
:10397000FFF790FDE36E2A46597D9869FDF785F9BA
:103980000322E36EDA73E36E597D9869FDF79AF9C5
:10399000E36E1869FDF7ACFEE26E136A002BE1D10D
:1039A000936913491E68537D0D68013B9B00DBB290
:1039B0003068D840800719D40868401B6428F7D9BC
:1039C00002251069FFF76DFDE36E1869FDF796FE9D
:1039D000E36E597D9869FDF781F9E36E597D986929
:1039E000FFF758FD0122E36EDA73BCE70025E8E734
:1039F000FC22002038B5044615461A46FFF789FF19
:103A000029462046BDE83840FFF7A8BF08B5FFF7B4
:103A1000B5FE012008BD000001210148FFF7C2BD2D
:103A2000A4120020022870B502460D4639D00528A0
:103A300036D100262C4C0222236801215B0103F1C0
:103A400084431E602046FEF74BF828494FF6FF706E
:103A5000B1FBF5F11122814228BF014623685E6265
:103A60009A62D8629A69204622F0FF029A615963ED
:103A70005B0103F184430121DE611D4AFDF792FFE2
:103A800002213220FDF720FD012223685B0103F1B2
:103A90008443C3F8802223685B0103F184431A60E6
:103AA00070BD0026134C0121236820465B0103F101
:103AB00084431E60FEF714F840F2E73223680E4993
:103AC0005E62B1FBF5F19A624FF6FF72914228BF38
:103AD0001146DA6220465963084A0121FDF762FF68
:103AE00003211C20CEE700BF3C02002000093D005E
:103AF00055320108D0010020401901006D3B01083A
:103B000002280CD005280CD1074B1B685B0103F180
:103B10008443D3F88401003018BF01207047034B61
:103B2000F3E70020704700BF3C020020D0010020D6
:103B3000013807289ABF024B53F820000020704735
:103B40009C3B0208FDF7B8BC40F271210620FDF74E
:103B5000A3BC70470368C9B21B68184708B50DF0CD
:103B6000FBFC0DF065FDFE200CF008FEBDE80840F2
:103B70000CF0E2BD054BD3F8D02293F8DC124FF4E1
:103B8000803312688B401361704700BFE83602082B
:103B900008B5114AD2F8803092F88C1018680123C9
:103BA00003FA01F109040161D2F81011086892F8D2
:103BB0001C1103FA01F109040161D2F8201292F8F4
:103BC0002C22096893401B040B61FFF7D3FFBDE86B
:103BD000084004F09EBF00BFE8360208044BD3F84B
:103BE000D02293F8DC12012312688B4013617047D6
:103BF000E8360208012138B5144BD3F8802010684C
:103C000093F88C2001FA02F20261114890F9002029
:103C100022F001040470D3F81041256893F81C4188
:103C200001FA04F42C6122F003040470D3F820425A
:103C300093F82C3224689940216122F00702027027
:103C4000FFF7CCFFBDE8384004F062BFE836020859
:103C5000F3160020094B93F90030022B0CD0084BCF
:103C60001B78C3F3C00040B1064AD07828B1C3F333
:103C7000800080F00100704701207047E4160020AA
:103C8000D8210020B82100200CF080BB10B540F2F4
:103C9000E9330446013B08D000BF00BF00BF42F635
:103CA0002F22013A00BFFCD1F4E772B640F2E933AB
:103CB000013B08D000BF00BF00BF41F29312013AA0
:103CC00000BFFCD1F4E70FF0F9FC24B1FFF792FF3D
:103CD000FFF738FFFCE7FFF781FFF9E70D460446E1
:103CE000164608B50FF0EAFC00F01CFA074800F091
:103CF00007FA07490748002D18BF2946002C18BFAE
:103D000020460CF021F93046FFF7C0FF313C020895
:103D1000D53B0208323D020870B5394B05461B7889
:103D2000032B01D802F0DAFF36490C680DB1364B8F
:103D30001C60364B1B68ABB1334A12681344E31A5C
:103D4000002B0FDB00F0EEF9314B3248196800F020
:103D5000EFF90A213048FFF7FDFE00221146104618
:103D6000FFF7BCFF2D4B1B683BB12D4A10782D4A45
:103D7000127890420BD0244B1C602B4D2B68E31A19
:103D8000002B03DB64340DF089FB2C6070BD274AE7
:103D900035B91D48096800680344CB1A002B02DAC4
:103DA00000231370E9E71378002BE6D10123137089
:103DB0001F4AD2F88010086892F88C1003FA01F1BB
:103DC00001611C4890F9001021F001050570D2F83E
:103DD00010512E6892F81C5103FA05F5356121F057
:103DE00003050570D2F8205292F82C222D689340DA
:103DF00021F007012B610170FFF7F0FEBDE700BF66
:103E00003C150020FC2200202C130020341300203D
:103E100040130020F43B02082C120020140600205E
:103E20006D1C00206E1C0020201300202413002095
:103E3000E8360208F316002008B50020FFF76CFFF3
:103E40000FF030FD0A4B1B7883B1FFF761F912F0D8
:103E500097F901F04FFC0CF0C3F90CF072F8054B28
:103E60001B781BB9BDE8084010F046B908BD00BF7B
:103E700026130020301300200322F8B50D4C0E4D00
:103E800094F900702270012206462A7010B10B4B83
:103E90001B681E442B7843B126B1084B1B689B1B43
:103EA000002B02DAFFF7C8FFF4E7002327702B701E
:103EB000F8BD00BF2913002027130020FC2200209A
:103EC00073B5584A584C1368204623F0E06343F01A
:103ED0000073136055490022FCF74CFB2369012154
:103EE00093F99100FDF7F0FA514B52481B6800F02E
:103EF00007F9FFF7FFF8FFF72CFEFFF70BF9C507EF
:103F0000044602D54C4800F0FBF8A00702D54B4808
:103F100000F0F6F8610702D5494800F0F1F82207F1
:103F200002D5484800F0ECF8A30602D5464800F058
:103F3000E7F8FFF7EEF8454800F0E2F820213A48AC
:103F4000FFF708FE424800F0DBF80A213648FFF789
:103F500001FE00F0E1F83F4800F0D2F800F0DCF894
:103F60003D4800F0CDF800F0D7F80020FCF752FAF9
:103F700001250DF10701091A3848394C00F0E4F821
:103F80004FF4A061374800F0DFF80A212648FFF718
:103F9000E1FD94F89C12D4F890020322FCF7E0FFB4
:103FA000D4F89032304E1A6894F89C3205FA03F334
:103FB0001B041361D4F890321A6894F89C320024E0
:103FC00005FA03F31B041361284B5C600BF0B7FF89
:103FD00020460CF037F80EF00DFB2046244C0EF076
:103FE00067FB2168306812F00DFF7168206060681F
:103FF00012F008FFB1686060A06812F003FFA060D3
:104000000CF09AFB1B480FF0BFFA0CF08FF90CF084
:104010000DFA0EF029FEFFF797FD174B1D7002B049
:1040200070BD00BF040001402C12002090D003009E
:10403000FC220020386302085D3C0208663C02084E
:10404000773C0208893C02089A3C02083B3D020882
:10405000AB3C0208B93C0208F53C02080C3D0208E2
:10406000E83602081B3D020820170020BC1600207D
:1040700000170020CC1D00202613002010B5FFF7EC
:10408000DBFE154B1B785B0615D50024134B1C700B
:1040900011F0F4FB02F03EFBFFF760FD0CF016F9A7
:1040A0000FF00CFB214620460FF056F90C4B0D4A41
:1040B0001C700D4B1A600D4C2378102B05D10C4849
:1040C00002F0C8FB08B10123237002F085FCBDE8B3
:1040D00010400CF09BBA00BFD8210020082000201F
:1040E0000F060020513C0208341500202613002042
:1040F000573C0208014811F0F5B900BF2513002014
:1041000010B5044614F9011B19B10248FFF722FD4E
:10411000F8E710BD2C1200200148FFF7F1BF00BFE7
:10412000493D02080148FFF7EBBF00BF423D0208CE
:1041300010B50C46FFF7E4FF2146BDE810400148EA
:10414000FCF7C8BA2C12002010B50C46FFF7D8FFB8
:104150002146BDE810400A220148FCF721BB00BF00
:104160002C12002010B50C46FFF7CAFF2146BDE80F
:1041700010400A220148FCF726BB00BF2C12002089
:1041800013B50C46FFF7BCFF204612F0ABFA022332
:104190000246009302480B46FCF7EEFB02B010BD4E
:1041A0002C12002010B50C46FFF7AAFF2146BDE8EF
:1041B00010400A220148FCF71DBB00BF2C12002052
:1041C000034A044B002814BF10461846FFF798BF57
:1041D0000A410208F33F0208F8B5069C07460E465E
:1041E000154613B11846FFF78BFF39680A48FFF7E9
:1041F000C7FF31680948FFF7C3FF29680848FFF780
:10420000BFFF24B12046BDE8F840FFF779BF0A217F
:104210000448FFF79FFCF8BDE03B0208E73B0208BB
:10422000EE3B02082C12002010B50446322C06D9B1
:104230003220323CFEF742FF0FF034FBF6E7204617
:10424000FEF73CFFBDE810400FF02CBB4138C3B275
:10425000192B2FD8184A1068D84010F001002AD026
:10426000164A1748D25C1AB3164B19688B188A562F
:10427000A2F13001C9B2092906D92E2A07D15A78EC
:10428000303A092A88BF00230360012070472D2A95
:1042900001D02B2A0AD193F90110A1F13002D2B238
:1042A000092AF1D92E2901D19A78E9E70023EBE711
:1042B0000260EAE7002070476413002046130020E4
:1042C000681300204013002008B5FFF7BFFF20B19E
:1042D000024B1868003018BF012008BD6813002089
:1042E000034B186818B10A22002119F027BE704745
:1042F000681300202DE9F34107200CF0F7FBA8B963
:104300004F20FFF7E1FF002876D0434B1B68002BBE
:1043100077D0FFF7E5FF002808DBFFF7E1FFFF2874
:104320006FDCFFF7DDFF10F0FF0F6AD104F0BCFB7C
:104330000DF07EF90022394B5A70394B1A68394B0F
:104340001A600CF0DDFA01200CF08CF85A20FFF70F
:104350007DFF07465820FFF779FF04465920FFF7F5
:1043600075FF8442064604D1A74202BF01242646B7
:1043700027465220FFF7A8FF002848D0264B186890
:10438000002846D00246904612F9015B35F0200124
:104390003AD0452D01D0652DF5D1002188F80010C7
:1043A000186819F0EBFC88F800500021019012F019
:1043B000C5FF50B904B986B11B4B0122197801A879
:1043C0000023C1F380010CF05FFA14B100200CF05F
:1043D00099FC16B101200CF095FC17B102200CF0ED
:1043E00091FC0CF0A9F90BF0F3FF0CF093FA04F038
:1043F0005CFB0CF089F904E04F20FFF727FF002851
:1044000094D002B0BDE8F08119F0B8FCCDE70748C0
:10441000CBE70020C9E700BF681300202806002072
:10442000FC2200202C130020F31600200000A040E6
:1044300038B50D4B1868A8B10246154612F9014B64
:1044400034F020010AD0452C01D0652CF5D1002193
:104450002970186819F092FC2C7038BDBDE83840FE
:1044600019F08CBC0020F8E768130020F8B500F0C4
:1044700047FE071E47DB244E44203478FFF724FF15
:10448000054610B3FFF7D4FF0021044612F056FF93
:1044900028B100243470BDE8F8400DF01FB81B4B64
:1044A000002143F82740204612F070FF60B14FF022
:1044B0007C51204612F0AEFD014612F0ABFD1449CE
:1044C00012F0A8FD134B18602C465320FFF7FCFE9A
:1044D00098B1114B1B680BB90124DBE7FFF700FF14
:1044E0000028D6DBFFF7FCFEFF28F5DCFFF7F8FE1F
:1044F000C0B2041C18BF0124CCE75320FFF7A6FE6E
:104500000028C7D0E8E7F8BD45130020581C00205C
:10451000DB0F4940540600206813002038B500F036
:10452000EFFD00280FDB0024074BE5B21857FFF71B
:104530008DFE28B1FFF77CFF014628460DF0C4FF31
:104540000134042CF0D138BD4F3D020838B500F0DD
:10455000D7FD00280FDB0024074BE5B21857FFF703
:1045600075FE28B1FFF764FF014628460DF0BAFF3B
:104570000134042CF0D138BD4F3D020810B51E4B5C
:104580001E4A1B681A422ED04220FFF75FFE40B140
:104590001B4B186818B10A22002119F08BFD194B2A
:1045A00018615320FFF752FE18B1FFF741FF154B7A
:1045B00018645420FFF74AFE18B1FFF739FF114B7A
:1045C00058644A20FFF742FE68B1FFF731FF0E49F9
:1045D000044612F0D1FE38B10C49204612F0C2FE5A
:1045E00010B10B4B1C6010BDFFF79CFDBDE81040E7
:1045F0000848FFF785BD00BF6413002002020C00CD
:1046000068130020A41C00200AD7233C9A99993EE5
:10461000741C0020663D020810B51D4B1B6813F486
:10462000682F12D11B4C1C48616BFFF7A9FDA16BD1
:104630001A48FFF7A5FDE16B1948FFF7A1FDBDE89A
:1046400010400A211748FBF775BF5320FFF73CFEC7
:1046500020B1FFF7EDFE0F4B5863D8635020FFF7F2
:1046600033FE18B1FFF7E4FE0A4B58635220FFF700
:104670002BFE18B1FFF7DCFE064B98635420FFF7C2
:1046800023FE18B1FFF7D4FE024BD86310BD00BF64
:1046900064130020A41C0020533D0208633D02085F
:1046A000DD3B02082C12002008B54220FFF7CEFDAA
:1046B00018B1164B1A88164B1A805220FFF7C6FD08
:1046C00018B1134B1A88114B1A805320FFF7BEFD07
:1046D00040B1104B186828B10A22002119F02EFCB5
:1046E0000A4B18800C4B1B687BB9084B0B48B3F97D
:1046F0000010FFF729FD25210948FBF71BFFBDE846
:1047000008400A210648FBF715BF08BD2406002013
:10471000100600206813002064130020853D020865
:104720002C12002038B500F0EBFC041E5DDB2F4B93
:104730002F4D1B6813F4802F17D02E4B2E499A7CD7
:10474000002A3CD02D4B186883188256A2F1300005
:10475000C0B2092806D92E2A20D15A78303A092A1F
:1047600088BF00230B60086858BBFFF7D5FC4521C4
:104770002348FFF7EFF904F130012148FFF7EAF988
:1047800035F914101F48FFF7DFFC25211C48FFF7FF
:10479000E1F90A211A48FFF7DDF926E02D2A01D0B8
:1047A0002B2A0AD193F90100A0F13002D2B2092AD2
:1047B000D8D92E2801D19A78D0E70023D2E70A6011
:1047C000D1E70A22002119F0B9FB00B225F8140044
:1047D00012F0CCFB0C4912F01DFC0C4B53F82410CA
:1047E00012F018FC0A4B43F8240038BD6413002073
:1047F00050060020461300206813002040130020BC
:104800002C120020893D02080AD7233C781C002086
:104810005806002010B54520FFF718FD002837D1B5
:104820005020FFF713FD264C10B1FFF701FEE060AA
:104830004920FFF70BFD28B1FFF7FAFD214912F0DF
:10484000E9FB20614420FFF701FD28B1FFF7F0FDEF
:104850001C4912F093FC6061FFF75EFCE1681A48A6
:10486000FFF78EFC2069174912F088FC01461748B3
:10487000FFF786FC6069134912F0CCFB014614482F
:10488000FFF77EFCBDE810400A211248FBF752BE3C
:10489000114B1B68002BC3D0FFF722FD0028BFDBA4
:1048A000FFF71EFDFF2804DCFFF71AFD10F0FF0FD5
:1048B000B6D0FFF737FCBDE810400848FFF720BC32
:1048C000781D00200AD7233E913D0208953D02083D
:1048D000993D02082C120020681300209D3D02081B
:1048E00070B55320FFF7B2FC0546F0B12F4B1868A6
:1048F00000283AD00246164612F9014B34F0200146
:1049000030D0452C01D0652CF5D1002131701868CC
:1049100019F034FA347012F043FD254B00B21880C0
:10492000B0FA80F0234B400918705020FFF78EFC3E
:104930000446F0B11E4BB3F9003083B11B4B1B682A
:104940006BB1FFF7CDFC002811DBFFF7C9FCFF2896
:1049500005DCFFF7C5FCC0B2041C18BF0124154BD1
:104960001C7070BD19F00AFAD5E70020D3E70024C7
:10497000F5E7002DF5D1FFF7CFFB0F48FFF7C0FBA0
:104980000C4B0E4A18780E4B002814BF10461846E0
:10499000FFF7B6FB064B0B48B3F90010FFF7D4FB4B
:1049A000BDE870400848FFF7ABBB00BF68130020AC
:1049B00068060020A81D0020B33D0208FE5D020825
:1049C000AF3D0208C63D0208D73D020810B5C0B190
:1049D000FFF7A2FB0D4C0E486169FFF7D1FBA169FF
:1049E0000C48FFF7CDFBE1690B48FFF7C9FB216AD3
:1049F0000A48FFF7C5FBBDE810400A210848FBF74D
:104A000099BD20210648FBF795FDE3E7A41C002093
:104A1000DB3D0208E73B0208EE3B0208DA3B0208F6
:104A20002C1200202DE9F04100F06AFB011E3EDB54
:104A3000204B214A1B681A4204D1BDE8F0410120F5
:104A4000FFF7C4BF00251D4B5857FFF7FFFB08B306
:104A50001B4B1B68F3B1032D1A4C22D1FFF7E8FC66
:104A60001949064612F074FC98B13146206A12F0DA
:104A700085FB01468046206B12F0CCFA134F206371
:104A8000F86812F06FFA414612F0C4FA12F0AEFC68
:104A9000F86026620135042DD5D1BDE8F0410DF056
:104AA000F3BCFFF7C5FC04EB85046061F2E7BDE8E9
:104AB000F08100BF6413002010008003E23D020873
:104AC00068130020A41C00200000A041841C0020CA
:104AD0000023024A1370024A137070472713002004
:104AE0000F060020012200210148FFF7F7B800BFA0
:104AF000BC3B0208FFF732B870B55320FFF7A6FBA6
:104B0000204D28B15320FFF7A1FB20BB00202870C7
:104B1000FFF702FB1C48FFF7F3FA2B786BB3002476
:104B200023462A78E240D2070CD55E1CF6B21BB1B0
:104B30002C211648FBF7FEFC154B53F82400FFF719
:104B4000DFFA33460134052CEBD1BDE870400A2171
:104B50000E48FBF7EFBC0F4B1B68002BD6D0FFF7BE
:104B6000BFFB0028D2DBFFF7BBFBFF2803DCFFF70E
:104B7000B7FBC0B2CBE7FF20C9E70748FFF7C0FA91
:104B8000E3E700BF28130020E63D02082C120020B6
:104B9000183E020868130020ED3D020801200BF0CA
:104BA0003BBC00200BF038BC08B51F4B1F491B68ED
:104BB000194031D05820FFF749FB48B11C4BD3F8BE
:104BC000802093F88C104FF4803312688B4013616F
:104BD0005920FFF73BFB48B1154BD3F8102193F850
:104BE0001C114FF4803312688B4013615A20FFF779
:104BF0002DFB48B10E4BD3F8202293F82C124FF422
:104C0000803312688B4013614520FFF71FFB50B1C2
:104C1000BDE80840FEF7AEBF06480BF0E5F9BDE879
:104C20000840FEF7B5BF08BD6413002010008003E4
:104C3000E83602082C3E020838B55320FFF706FB81
:104C400010B3364B1868F8B1354A1168354A11600F
:104C50000246154612F9014B34F0200111D0452CC3
:104C600001D0652CF5D100212970186819F086F85B
:104C70002C702D4912F0CEF912F0B8FB2B4B1860B6
:104C800038BD19F07BF8F4E7294B2A4A1B681A4211
:104C900040D00CF0CDFC5820FFF7D8FA68B1264B75
:104CA000D3F8802093F88C10012312688B40136195
:104CB000224A137823F0010313705920FFF7C6FA34
:104CC00068B11D4BD3F8102193F81C110123126811
:104CD0008B401361194A137823F0020313705A2092
:104CE000FFF7B4FA68B1144BD3F8202293F82C12D2
:104CF000012312688B401361104A137823F00403D8
:104D000013704520FFF7A2FA0028B9D0BDE838405B
:104D1000FEF764BFBDE838400CF064BC68130020A7
:104D2000FC2200202C13002000007A4414060020EE
:104D30006413002010008003E8360208F3160020F8
:104D40002DE9F043444D454C2F6889B039466068E1
:104D500012F058F8D4F808906E6802903146484630
:104D600012F050F8D4F80C80AD6803902946404604
:104D700012F048F839460490206912F043F8D4F84C
:104D8000149005903146484612F03CF8D4F818804B
:104D900029460690404612F035F80790FFF7BCF917
:104DA0002F48FFF7ADF92F4B1B685B0321D52E4B26
:104DB0002E499A7C002A43D02D4B186883188256BE
:104DC000A2F13000C0B2092806D92E2A27D15A787C
:104DD000303A092A88BF00230B600B683BB1FFF70C
:104DE0007FFA002835DBFFF77BFAFF282ADD012058
:104DF00020702078FFF7E4F91E4B04AA009303A962
:104E000002A81D4BFFF7E8F9002307AA009306A9A3
:104E10001A4B05A8FFF7E0F909B0BDE8F0832D2A89
:104E200001D02B2A0AD193F90100A0F13002D2B2AD
:104E3000092AD1D92E2801D19A78C9E70023CBE7D6
:104E40000A60CAE7FFF74CFAC0B2003018BF012071
:104E5000CEE70020CCE700BF38170020280600204E
:104E6000353E02086413002046130020681300201A
:104E700040130020F7620208453E02084D3E02083A
:104E80000CF0D6BB08B50EF019FC0BF01FFA0CF0B5
:104E9000A9FB002108460EF05FFA4FF47A70FFF785
:104EA000C3F9BDE80840002101480BF09DB800BFE0
:104EB000553E020838B5284B1B685B0333D5274B9A
:104EC000274A997C002940D0264B18684318415640
:104ED000A1F13000C0B2092806D92E2924D1597871
:104EE0003039092988BF002313601F4B10681968E7
:104EF0001E4B196070B303461D4613F9014B34F085
:104F0000200124D0452C01D0652CF5D10021297039
:104F1000106818F033FF2C70154912F07BF812F06E
:104F200065FA144B186038BD2D2901D02B290AD100
:104F300093F90100A0F13001C9B20929D4D92E2872
:104F400001D19978CCE70023CEE71160CDE718F0C6
:104F500015FFE1E70020DFE764130020461300207F
:104F60006813002040130020FC2200202C13002096
:104F700000007A443413002008B51D4B1B685B0306
:104F800004D40020BDE80840FEF710B9194B1A49B7
:104F90009A7C52B3194B186883188256A2F13000DC
:104FA000C0B2092806D92E2A0ED15A78303A092AD9
:104FB00088BF00230B6008680028E2D00A22002185
:104FC00018F0BCFF00B2DDE72D2A01D02B2A0AD150
:104FD00093F90100A0F13002D2B2092AEAD92E28B1
:104FE00001D19A78E2E70023E4E70A60E3E700BF33
:104FF0006413002046130020681300204013002093
:10500000012208B5114B53201A700022104B1A7060
:10501000FFF71CF9A0B10F4B1B688BB1FFF760F9CC
:10502000002803DABDE8084001F024BDFFF758F975
:10503000FF2804DCFFF754F910F0FF0FF2D008BD91
:105040005320FFF703F90028ECD0F8E726130020DF
:105050007916002068130020034B00211A68034BC7
:10506000C0B21A600FF058B9FC2200202C130020A7
:105070000DF0BEBA08B50DF0BDFABDE8084000203D
:105080000DF016BB0DF0B6BA10B55320FFF7DEF8E1
:105090000446B8B10F4B1B68A3B1FFF721F90028F4
:1050A00015DBFFF71DF9FF2805DCFFF719F9C0B282
:1050B000041C18BF012484F00100C0B2BDE81040F8
:1050C0000DF0F6BA5320FFF7C1F80124F3E70024EE
:1050D000F1E700BF68130020084B03281B7804D1B8
:1050E00013F0200205D1D90605D4C34003F0010016
:1050F0007047012070471046704700BF2A130020F8
:1051000010B55420FFF7E0F848B3FFF7E9F800289E
:1051100021DBFFF7E5F8FF281FDCFFF7E1F8C0B25D
:1051200044B2002C15DDFEF7F7FF4D210D48FEF7C8
:1051300011FD0D4B0A2219880A48FBF731FB214665
:105140000A48FFF701F80A210648FEF703FD4FF071
:10515000FF34204610BD0020E2E7FF20E0E70446D0
:10516000F7E700BF2C12002060130020A63E0208C3
:105170002DE9F04100245FFA84F808F1580040B2AC
:10518000FFF7A2F8A600244D00283AD0FFF750F907
:1051900007464046FFF7A0FF68B3204B38469959B1
:1051A00011F030FEA8510134032CE4D14520FFF763
:1051B0008BF860B3FFF73CF906462046FFF78CFFFB
:1051C00028B1164B3046D96811F01CFE0646EE6039
:1051D0004620FFF779F860B1FFF72AF9002112F0B5
:1051E000D5F830B1FFF724F90D4911F0C7FF0D4B89
:1051F0001860BDE8F0810C4B3846995911F000FE5B
:10520000D0E7064B53F8243045F82430CBE7034B66
:10521000DB68EB60DCE700BF101700200017002000
:1052200000007042200600203817002038B5054CD9
:105230002568054423685B1B002B02DAFEF7FCFDA2
:10524000F8E738BDFC220020012370B5CE4E05469C
:1052500096F900403370CD4B93F900304D2B38D088
:10526000542B00F0E681472B15D1C94B1888042830
:1052700022D009D8012819D800F0C6FD002D40F031
:10528000658101F091FB61E15A281BD007D81528F0
:10529000F4D01C2813D0BF4801F008FAEEE75B28D1
:1052A00014D05C28F7D100F063FAE7E7831E584278
:1052B000584100F0D3FFE1E701F0A0F8DEE7FFF787
:1052C00019F8DBE70022B44B1A70D7E7B24B0F2274
:1052D000FAE7AF4B1B88702B00F0468173D8202B68
:1052E00000F0268132D8172B00F00D8115D8122B33
:1052F00000F0578107D8012B40F2FC80112BCAD156
:10530000FFF752FCBAE7152B00F0F78000F2F880A7
:10531000142BC0D101F00AFDB0E71B2B00F0FC807C
:1053200007D8192B00F0F58040F2F08001F05EFD07
:10533000A4E71D2B00F0F680C0F0F1801E2B00F0DA
:10534000F4801F2BA7D101F0BDFE97E75C2B00F086
:105350002B811BD8512B00F010810AD84C2B00F068
:10536000EA804D2B00F0EA804B2B94D101F0C8FE6F
:1053700084E7532B00F01281C0F00281542B00F01F
:105380001081552B87D1FFF795FD77E76B2B00F048
:10539000E2800AD8692B00F0D78000F2D980682B10
:1053A0007FF479AF01F0B2FE68E76D2B00F0C980A1
:1053B000C0F0D7806E2B00F0D1806F2B7FF46BAFE5
:1053C000FFF79AFB5AE7DC2B00F0128138D8792BD3
:1053D00000F0F98016D8752B00F0EC800AD8722BFB
:1053E00000F0E580C0F0C680732B7FF454AF00F06E
:1053F000B1FB43E7772B00F0E38040F2DE80FFF75C
:10540000CDFB3BE7CB2B00F0E7800BD8C82B00F09F
:10541000DD80C92B00F0DD809B2B7FF43CAF01F0D9
:1054200041FF2BE7CD2B00F0DD80C0F0D880CE2BE4
:1054300000F0DB80D32B7FF42EAFFFF781FC1DE75C
:10544000B3F5FA7F00F0E38027D8B3F5977F00F03B
:10545000D8800BD8B3F5967F00F0CD8000F2CE80D7
:10546000DD2B7FF418AFFFF75DF907E7B3F5C87FD1
:1054700000F0CA8007D840F22F1293427FF40BAF9E
:1054800001F070FFFAE6B3F5CD7F70D0B3F5D67FAB
:105490007FF401AF00F0D8F9F0E6B3F5037F00F038
:1054A000BF800DD8B3F5FB7F00F0B780C0F0B280AD
:1054B00040F2F71293427FF4EEAEFFF7E5FDDDE632
:1054C00040F2E532934200F0AE8006D8B3F5687F33
:1054D0007FF4E1AE01F096FDD0E640F2E732934270
:1054E00000F0A48040F2E93293427FF4D4AE01F0A0
:1054F000FBFBC3E600F010FCC0E601F033FCBDE6A8
:1055000001F032FCBAE601F039FCB7E601F046FCE6
:10551000B4E601F059FCB1E601F0B6FCAEE601F0EC
:10552000F5FCABE601F0F8FCA8E601F0FDFCA5E611
:1055300001F00EFDA2E601F0E5FD9FE601F0E4FDBD
:105540009CE601F011FE99E601F056FE347070BD44
:1055500001F07AFE92E601F099FE8FE600F03EFA45
:105560008CE6FFF7B5FA89E6FFF7BCFA86E6FFF7A7
:10557000C1FA83E600F072FA80E6FFF783FC7DE66D
:1055800001F072FF7AE600BF2913002044130020C7
:10559000601300206C1300202A13002001F06EFF1E
:1055A0006CE6FFF749FB69E6FFF73CFA66E600F0B8
:1055B000B5FA63E600F0FAFB60E600F06FFB5DE62B
:1055C00000F0A8FB5AE6FFF7ECFA57E6FEF74EFFAD
:1055D00054E6FEF7A3FF51E6FEF7B8FF4EE6FFF7ED
:1055E0001BF84BE6FEF7CAFF48E600F0BDF945E6BA
:1055F000FFF75AF842E600F0E7FB3FE6FFF70AF94B
:105600003CE6FFF76DF939E6FFF73AFC36E6FFF7BF
:105610002FFD33E6FFF72EFD30E6FFF733FD2DE6D5
:1056200001F0E0FC2AE6FFF7A7FC27E6FFF7E8FC1D
:1056300024E6034B93F90000FFF70EFD1EE600BFC2
:1056400060130020602210B50B4B1C780B4B02FB43
:1056500004340B4B1B78DB0705D5FEF75DFD2146B7
:105660000848FBF746F8204600F020FFBDE8104050
:105670000020FFF7E9BD00BF3D1500207413002096
:10568000281300202C1200202DE9F8430446184B63
:1056900000AFD3F800900A21204616F0FBFEE84642
:1056A0000546C0B1061B06F1080323F00703ADEB66
:1056B000030D32462146684617F014F90023684668
:1056C0000DF8063000F0F2FE0120FFF7BDFD3DB100
:1056D000C5466C1CDFE7204617F08CF80646E2E76B
:1056E000C546484600F0E2FEBD46BDE8F88300BF6F
:1056F0004013002070B5164B164E1D68164B174C04
:105700001B78ABB933789BB1154B93F900307BB163
:105710002268AA1A002A11DB013B032B08D8DFE814
:1057200003F002020E12FEF7F7FC0E48FEF7E8FC4B
:105730004FF47A72337802FB0353236070BDFEF797
:10574000EBFC0948F2E7FEF7E7FC0848EEE700BF8C
:10575000FC220020180600203013002038130020FF
:1057600029130020653E0208773E02088E3E02089B
:105770002DE9F84F002427462C4B5FFA84F918577F
:10578000FEF764FD8046002837D0294A1068A0B390
:1057900003469A4613F9016B36F0200137D0452EA7
:1057A00001D0652EF5D100218AF80010106818F09C
:1057B000E5FA05468AF80060032C4FEA840606D015
:1057C0001C4B284653F8241011F01AFB0546DFF84D
:1057D00074B028465BF8061011F012FB1649824699
:1057E00011F0CAFD20B11549504611F0BBFD20B99A
:1057F000032C10D14746CBF80C500134042CBBD1FC
:105800000FB10AF0A3FFBDE8F84F0AF07DBF18F012
:10581000B5FA0546D0E70A4D5146A85911F0F2FAFB
:10582000A85148460BF036FAE7E700BFB93E020838
:105830006813002038170020BD3786B5BD37863580
:105840002C17002000170020F0B5072085B00BF0C2
:1058500069F9002857D104462C4B01AE53F8245067
:105860002B4B294653F8240011F0CAFA2949074660
:1058700046F8240011F080FD20B12749384611F088
:1058800071FD38B9254BE356002BC4BF05F1004527
:1058900046F8245056F824501E49284611F06CFD55
:1058A00010B31D49284611F05DFDE8B10134032C09
:1058B000D2D1019900200BF075FA029901200BF06A
:1058C00071FA039902200BF06DFA0AF01DFF002116
:1058D00013480AF089FB40F2932164200AF0CCFCC3
:1058E00040F2BA21642009E0FEF71CFC0D48FEF7E7
:1058F00007FC0D480AF0DCFB2821C82005B0BDE8F4
:10590000F0400AF0B9BC05B0F0BD00BF00170020A0
:10591000C03E02080000A0C10000A041BD3E020838
:10592000F83E0208CC3E0208EA3E020810B5094CD7
:1059300009482168FEF724FC61680848FEF720FC4E
:10594000A1680748FEF71CFCBDE810400A21054885
:10595000FAF7F0BD201700201C610208E73B02089F
:10596000EE3B02082C120020F8B50025EEB206F13D
:10597000580040B2FEF76AFCB8B1164A106818B376
:1059800003461F4613F9014B34F0200119D0452C72
:1059900001D0652CF5D100213970106818F0EEF9AE
:1059A0003C70014630460BF0FDF90135032DDDD189
:1059B000094B1B6813F0607F08D1BDE8F840FFF782
:1059C000B5BF18F0DBF9ECE70020EAE7BDE8F840E6
:1059D0000AF09ABE681300206413002008B51A4B21
:1059E0001B689B041CD5194B19495A7B52B3194BA0
:1059F000186883188256A2F13000C0B2092806D96F
:105A00002E2A0ED15A78303A092A88BF00230B601B
:105A1000086828B10A22002118F090FA0E4B18608D
:105A200008BD2D2A01D02B2A0AD193F90100A0F13B
:105A30003002D2B2092AEAD92E2801D19A78E2E7B7
:105A40000023E4E70A60E3E7641300204613002024
:105A500068130020401300203815002010B5284B93
:105A6000284C1B6813F4802F16D0274B27499A7CAB
:105A70007AB3274B186883188256A2F13000C0B25F
:105A8000092806D92E2A13D15A78303A092A88BF14
:105A900000230B600B68F3B9FEF73EFB21781D482D
:105AA000FEF780FBBDE810400A211B48FAF742BD13
:105AB0002D2A01D02B2A0AD193F90100A0F130023E
:105AC000D2B2092AE5D92E2801D19A78DDE7002340
:105AD000DFE70A60DEE7FEF703FC002802DA0023B6
